:03000000120003E8
:400100000211B4000213330002133300021333000211D300021221000213330002133300021333000213330002133300021286000212A50002133300021333000213330072
:4001400002133300021333000213330002133300021333000213330002133300021333000213330002133300021333000213330002133300021333000213330002133300FF
:380180000213330002133300021333000213330002133300021333000213330002133300021333000213330002133300021333000212E20002133300A9
:03004300020100B7
:03005300020100A7
:03004B000218CECA
:11000300E4F5D0758170121F1475D000120E6C80FE49
:171F2F0014290101000000000000000000000000000000001000103C
:401F46000F100101AC0101070101000007060600C4C4C5C5C5C4C4C03F30F12D2DF1123F0F1001A3010101070101020704000000C0C0C2C2C0C0C0C03F312D2D002D363F09
:401F860001010101010101070200020000000000C1C4C4C0C0C0C0C0CE095212002D123F01010101010101070202000000000000C2C2C0C0C0C0C0C009521212002D363F10
:071FC600400001C006E431F8
:0700140075B2F9538086224A
:40031E0075220075230075280090E0017410F090E65EE054EFF090E660E054FEF07402558060034323041213C41213C41213C490E61274A0F01213C41213C41213C490E67F
:40035E00137422F01213C41213C41213C490E61474E0F01213C41213C41213C490E6157422F01213C41213C41213C490E6047480F01213C41213C41213C490E6047402F0BD
:40039E001213C41213C41213C490E6047406F01213C41213C41213C490E604E4F01213C41213C41213C490E6187401F01213C41213C41213C490E6187411F01213C41213FD
:4003DE00C41213C490E61A7409F01213C41213C41213C490E6917480F01213C41213C41213C490E6917480F01213C41213C41213C490E6917480F01213C41213C41213C488
:29041E0090E6917480F0120E021213C41213C41213C490E6D3E4F01213C41213C41213C490E6E3E4F05380FE22F5
:4000560090E68BE4F090E6A0E0540270F890E132E4F0A3F0800D7F017E0012138890E132121D3912160E500F90E132E0FAA3E0FB2418EA34FC50DF754950E4FBFA90E6BF63
:40009600E0FF7E007D08121D8590E6BEE0FD7C00121D6AAD07AC067F407EE712161490E132E4F0A3F0800D7F017E0012138890E132121D3912160E500F90E132E0FAA3E0C6
:0900D600FB2418EA34FC50DF227F
:0E001B004380807F017E0012138853807F2275
:0D00290090E740E4F090E68AF0A304F02296
:4004470090E6BBE0FF7E007D08121D8590E6BAE0FD7C00121D6AEF4E700790E0A1E4F0A3F090E134E4F0A3F0803B90E0A1E0FEA3E0FF90E094121D2EE090E134FAE0FEA3C7
:40048700E0FF90E740121D2EEAF090E0A1E0F8A3E0F924F4E834FF400690E0A1121D3990E134121D3990E6BFE0FF7E007D08121D8590E6BEE0FD7C00121D6A90E134E0F896
:2804C700A3E0F9C39FE89E40A190E68AE4F090E6BFE0FF7E007D08121D8590E6BEE0FD121D6A90E68BEFF0227D
:0F00DF0090E740E523F090E68AE4F0A304F022D6
:0F00EE0090E740E522F090E68AE4F0A304F022C8
:2D01B8005322F190E7407401F090E6BBE0FF7E007D08121D8590E6BAE0FD7C00121D6A90E000EFF090E68AE4F0A304F022D3
:4004EF0090E68BE4F090E136F0A3F0800D7F017E0012138890E136121D3990E6A0E05402600F90E136E0FAA3E0FB2418EA34FC50DC90E136E0FAA3E0FB2418EA34FC5003A3
:40052F000205FA90E6BBE0FF7E007D08121D8590E6BAE0FD7C00121D6AEF4E701090E000E090E0A4F0E490E0A3F05322F790E136E4F0A3F0800D7F017E0012138890E13651
:40056F00121D3912160E500F90E136E0FAA3E0FB2418EA34FC50DF90E136E0FAA3E0FB2418EA34FC406575497090E0A3E0FAA3E0FB90E6BFE0FF7E007D08121D8590E6BE39
:4005AF00E0FD7C00121D6AAD07AC067F407EE712161490E136E4F0A3F0800D7F017E0012138890E136121D3912160E500F90E136E0FAA3E0FB2418EA34FC50DF90E136E05F
:4005EF00FAA3E0FB2418EA34FC50044322082290E6BFE0FF7E007D08121D8590E6BEE0FD7C00121D6A90E0A3121CCCE0FAA3E0FBEA24FF500C43220290E0A3E4F074FFA3F8
:02062F00F022B7
:4006310090E6BBE0FF7E007D08121D8590E6BAE0FD7C00121D6AEF4E701090E000E090E0A6F0E490E0A5F05322FB90E138E4F0A3F0800D7F017E0012138890E138121D39DB
:4006710012160E500F90E138E0FAA3E0FB2418EA34FC50DF90E138E0FAA3E0FB2418EA34FC406575507090E0A5E0FAA3E0FB90E6BFE0FF7E007D08121D8590E6BEE0FD7C38
:4006B10000121D6AAD07AC067F407EE712164C90E138E4F0A3F0800D7F017E0012138890E138121D3912160E500F90E138E0FAA3E0FB2418EA34FC50DF90E138E0FAA3E0F8
:4006F100FB2418EA34FC500B90E68AE4F0A3F04322042290E6BFE0FF7E007D08121D8590E6BEE0FD7C00121D6A90E0A5121CCCE0FAA3E0FBEA24FF500C43220290E0A5E40A
:26073100F074FFA3F090E68AE4F090E6BFE0FF7E007D08121D8590E6BEE0FD7C00121D6A90E68BEFF022E5
:2407570090E6BBE0FF7E007D08121D8590E6BAE0FD7C00121D6A90E001EFF0E024F040037410F02278
:40077B0090E68BE4F090E13AF0A3F0800D7F017E0012138890E13A121D3990E6A0E05402600F90E13AE0FAA3E0FB2418EA34FC50DC90E13AE0FAA3E0FB2418EA34FC500304
:4007BB000208A290E6BBE0FF7E007D08121D8590E6BAE0FD7C00121D6AEF4E700D90E001E090E0A8F0E490E0A7F090E13AE4F0A3F0800D7F017E0012138890E13A121D390E
:4007FB0012160E500F90E13AE0FAA3E0FB2418EA34FC50DF90E13AE0FAA3E0FB2418EA34FC50030208A275495090E0A7E0FAA3E0FB90E6BFE0FF7E007D08121D8590E6BECD
:40083B00E0FD7C00121D6AAD07AC067F407EE712161490E13AE4F0A3F0800D7F017E0012138890E13A121D3912160E500F90E13AE0FAA3E0FB2418EA34FC50DF90E13AE0C0
:28087B00FAA3E0FB2418EA34FC401C90E6BFE0FF7E007D08121D8590E6BEE0FD7C00121D6A90E0A7121CCC2207
:4008A30090E6BBE0FF7E007D08121D8590E6BAE0FD7C00121D6AEF4E700D90E001E090E0AAF0E490E0A9F090E13CE4F0A3F0800D7F017E0012138890E13C121D3912160E93
:4008E300500F90E13CE0FAA3E0FB2418EA34FC50DF90E13CE0FAA3E0FB2418EA34FC406575505090E0A9E0FAA3E0FB90E6BFE0FF7E007D08121D8590E6BEE0FD7C00121DDF
:400923006AAD07AC067F407EE712164C90E13CE4F0A3F0800D7F017E0012138890E13C121D3912160E500F90E13CE0FAA3E0FB2418EA34FC50DF90E13CE0FAA3E0FB24186B
:40096300EA34FC500890E68AE4F0A3F02290E6BFE0FF7E007D08121D8590E6BEE0FD7C00121D6A90E0A9121CCC90E68AE4F090E6BFE0FF7E007D08121D8590E6BEE0FD1293
:0809A3001D6A90E68BEFF022C3
:1E09AB0090E680E05480600890E7407401F0800590E740E4F090E68AE4F0A304F02263
:4009C90090E610E054FEFAF0E04401F0EAF090E68DE4F01213C41213C41213C45323FB5322FE5380C77F017E0012138843800890E13EE4F0A3F0800D90E13E121D397F019D
:1B0A09007E0012138874045580700F90E13EE0FAA3E0FB2418EA34FC50DE222E
:400A240090E68DE0F80890E780803AE0A3C285139284D285C285139284D285C285139284D285C285139284D285C285139284D285C285139284D285C285139284D285C285C3
:0D0A6400139284D285D8C490E68DE4F02270
:1701E5005380CF74025580600743230412001B224322015380F722A4
:400A71005322DF74035523700890E6C1E05480700B43222090E740E4F0020BCE43804090E680E05480602E1213C41213C41213C47526007527FF1213C41213C41213C490C2
:400AB100E6307482F01213C41213C41213C490E631E4F0802D1213C41213C41213C475260075271F1213C41213C41213C490E6307480F01213C41213C41213C490E63174FA
:400AF10040F01213C41213C41213C490E6D2E4F01213C41213C41213C490E6047480F01213C41213C41213C490E6047402F01213C41213C41213C490E604E4F090E6837494
:400B310002F07422F07402F01213C41213C41213C490E6187401F01213C41213C41213C490E6187411F01213C41213C41213C490E6917480F01213C41213C41213C490E663
:400B7100917480F01213C41213C41213C490E6917480F01213C41213C41213C490E6917480F075280043230290E6F3E04480F074FF552690E6D0F074FF5527A3F090E65F06
:290BB1007410F090E6617401F090E65EE04410F090E660E04401F090E7407401F05380BF90E68AE4F0A304F0224D
:400BDA00740255237003020C7090E65EE054EFF090E660E054FEF090E6D0E4F0A3F090E6F3E0547FF05323FD90E6F574FFF01213C41213C41213C490E6047480F01213C421
:400C1A001213C41213C490E6047402F01213C41213C41213C490E604E4F01213C41213C41213C490E6917480F01213C41213C41213C490E6917480F01213C41213C412139C
:170C5A00C490E6917480F01213C41213C41213C490E6917480F0220C
:400C71005322EF74035523700890E6C1E05480700B43221090E740E4F0020D9990E680E0548060591213C41213C41213C47524007525FE1213C41213C41213C490E6347442
:400CB10018F01213C41213C41213C490E635E4F01213C41213C41213C490E6E2E4F01213C41213C41213C490E6247402F01213C41213C41213C490E625E4F0803B1213C451
:400CF1001213C41213C475240075251E1213C41213C41213C490E6E27401F01213C41213C41213C490E624E4F01213C41213C41213C490E6257440F04380011213C4121333
:400D3100C41213C490E6047480F01213C41213C41213C490E6047406F01213C41213C41213C490E604E4F090E6837416F07436F07416F075280043230190E6F3E04480F047
:310D710074FF552490E6E0F074FF5525A3F090E6617401F090E660E04401F090E6E4E090E7407401F05380FE90E68AE4F0A304F022C4
:400DA20074015523605990E660E054FEF090E6E0E4F0A3F090E6F3E0547FF05323FE90E6F574FFF01213C41213C41213C490E6047480F01213C41213C41213C490E60474A6
:200DE20006F01213C41213C41213C490E604E4F090E6837416F07436F07416F075280022AC
:4002000012010002000000408D081E100200010200010A060002000000400100090227000101004000090400000300000000070501024000000705020200020007058602D4
:400240000002000009022700010100400009040000030000000007050102400000070502024000000705860240000000040309041C0341006C006900740072006F006E0079
:2402800069006B00610020004E004C000E034100540034002000200020000A03560034002E0031003B
:4002A400200FFA21100322100923100F24101525101B26102127102728102D2910332A10392B103F2C10452D104B2E10512F105730105D32106331106906106F0A111A0B55
:3702E400112009112508112A00112F01115B03116D2E0056657273696F6E3A2056004175672032332032303036000A0D004275696C6465643A20008A
:03031B0030780037
:400E020090E60174E2F090E6F574FFF090E12BE090E6F3F04420F090E12CE090E6C3F090E12DE090E6C1F090E12EE090E6C2F090E130E090E6C0F090E131E090E6F4F07512
:2A0E4200AF0790E14074E0F074ABA3F090E140E0F59AA3E0F59B759DE4759E007F0090E67BE0A3F00FEF30E7F522DE
:021FCD00000012
:400E6C0090E600E04402F01213C41213C41213C490E600E04410F01213C41213C41213C4538EF81216087F021213DC7FF77E0212140D7F047E001214707FF57E0212140D38
:400EAC007F017E001214707F0E7E0312140D7F117E0312140D7F027E0312140D7F0E7E0312140DE4F510F511F512F513800C7F017E001213887810121EF91213FE5012E527
:400EEC00132418E51234FCE51134FFE51034FF50DD120FA690E0047402F07400A3F0A37402F07412A3F0A37402F0741CA3F0A37402F07444A3F090E0107402F0746CA3F02F
:400F2C00A37402F07470A3F0A37402F0748CA3F0A37402F0749AA3F090E680E05480602290E008E0FAA3E0FB90E00CEAF0EBA3F090E00AE0FCA3E0FD90E00EECF0EDA3F03F
:3A0F6C00801E90E00AE0FAA3E0FBA3EAF0EBA3F090E008E0FCA3E0FD90E00EECF0EDA3F0D2027F0012133E300005120FEAC2003001F5120A24C20180EE22C1
:400FA600C2AFC200C20190E61074A0F0A37420F090E68DE4F090E668E0440BF090E65CE04431F090E65EE04408F0D2E8D2EAD2AF5391EF90E65D74FFF090E65FF012031E91
:040FE60012001422BF
:400FEA0090E6B9E09002A475F01B121CEE02117712001B12031E02117E12044702117E1200DF02117E1200EE02117E12002902117E1201B802117E1204EF02117E12063163
:40102A0002117E1209C902117E1201E502117E120A7102117E120BDA02117E120C7102117E120DA202117E12005602117E12077B02117E1208A302117E12075702117E1260
:40106A0009AB02117E90E6BBE014601014603314605624FD601914603C02117790E004E090E6B3F090E005E090E6B4F002117E90E006E090E6B3F090E007E090E6B4F002D8
:4010AA00117E90E00CE090E6B3F090E00DE090E6B4F002117E90E00EE090E6B3F090E00FE090E6B4F002117E90E6BAE0602F14600614601602117E90E012E090E6B3F0903A
:4010EA00E013E090E6B4F002117E90E014E090E6B3F090E015E090E6B4F002117E90E010E090E6B3F090E011E090E6B4F002117E1211A202117E1211988059120036805430
:40112A00121186804F90E6B8E02480600F14600514600F803890E740E4F0800690E7407401F090E741E4F090E68AF0A37402F0802390E6B8E0601624FE701990E6BAE06044
:1C116A0013800A90E6B8E0600424FE700790E6A0E04401F090E6A0E04480F022CA
:0A00360090E6BAE090E002F0D32259
:1211860090E002E090E740F090E68AE4F0A304F0D322FE
:0A11980090E6BAE090E003F0D322E5
:1211A20090E003E090E740F090E68AE4F0A304F0D322E1
:1F11B400C0E0C082C083C0D075D008D2005391EF90E65D7401F0D0D0D083D082D0E03216
:4011D300C0E0C082C083C0D075D00890E00AE0F8A3E0F9A3E8F0E9A3F090E008E0FAA3E0FB90E00EEAF0EBA3F05391EF90E65D7410F0C200C20190E61074A0F0A37420F01F
:0E12130090E68DE4F0D0D0D083D082D0E032CF
:40122100C0E0C082C083C0D075D00890E680E05480602290E008E0F8A3E0F990E00CE8F0E9A3F090E00AE0FAA3E0FB90E00EEAF0EBA3F0801E90E00AE0F8A3E0F9A3E8F034
:25126100E9A3F090E008E0FAA3E0FB90E00EEAF0EBA3F05391EF90E65D7420F0D0D0D083D082D0E032F5
:1F128600C0E0C082C083C0D075D008D2015391EF90E65F7408F0D0D0D083D082D0E03239
:3D12A500C0E0C082C083C0D075D00890E6C1E05480601674FF552690E6D0F074FF5527A3F090E6D474FFF0800205285391EF90E65F7410F0D0D0D083D082D0E03264
:4012E200C0E0C082C083C0D075D00874015523601474FF552490E6E0F074FF5525A3F090E6E4E0801AE528601674FF552690E6D0F074FF5527A3F090E6D474FFF01528537D
:1113220091BF90E6617401F0D0D0D083D082D0E03207
:0B133300C0D075D0085391EFD0D0322D
:40133E008F1490E680E04408F01213C41213C41213C490E6FBE514F030020790E680E04402F07FD07E0712138890E65D74FFF090E65FF05391EF5391BF90E680E054F7F05D
:0A137E001213C41213C41213C42288
:3C1388008E158F1690E600E05418700978157F027E00121D1390E600E05418B4100978157F027E00121CBE80031213CBAB16AA151516BB00021515EB4A70EE2217
:0713C4000000000000002200
:040046000000002294
:1113CB007400F58690FDA57C05A3E582458370F92212
:2213DC008F1790E018E517F0C20390E089E4F0A3F01217D67B647D237CE07F197EE01219EB22A8
:0613FE0012004072032200
:0914040090E089E0FEA3E0FF2264
:05004E007FC87E0022C6
:40140D008E348F35D203C2AF7536008017E536853582853483121D25E493FD7F197EE0121AA80536E536853582853483121D25E49370DA120040402890E089E4F0A3F07FF0
:23144D00197EE0121B5C90E088F07557157558BB90E018E0FB7D017C007F887EE01217FED2AF229F
:401470008E378F38753900D203AF38AE377D0A7C00121D9574302DFAE5390539243AF9A70278377F0A7E00121CDEEF4E70DBC2AF8010E5392439F9E7FD7F197EE0121AA806
:3614B0001539E53970EC120040402890E089E4F0A3F07F197EE0121B5C90E088F07557157558BB90E018E0FB7D017C007F887EE01217FED2AF22C8
:4014E6008E3F8F40754100D2037F1B7E0312140DAF40AE3F7D107C00121D958D42E54224F6401074302542FAE54105412443F9A702800E74372542FAE54105412443F9A7C1
:4015260002783F7F107E00121CDEEF4E70C2C2AF8010E5412442F9E7FD7F197EE0121AA81541E54170EC120040402890E089E4F0A3F07F197EE0121B5C90E088F0755715D6
:161566007558BB90E018E0FB7D017C007F887EE01217FED2AF225B
:3F157C008F48D203C2AFAD487F197EE0121AA8D2AF120040402890E089E4F0A3F07F197EE0121B5C90E088F07557157558BB90E018E0FB7D017C007F887EE01217FE22DE
:4015BB001200FD501090E089121D71EF2438EE34FF403080177F197EE0121C10EF144E70227F197EE0121B5C90E088F07557157558BB90E018E0FB7D017C007F887EE012BA
:0D15FB0017FE22C2037F197EE0121A46225D
:061608001217D6C20422F5
:06160E00120040720422EC
:0401FC001200FD22CE
:381614008E4A8F4B8C4C8D4D8A4E8B4F12160E5002C322D204854A29854B2A854C2C854D2D90E08BE54EF0E54FA3F085492BA3E4F0A3F0121757D322FA
:38164C008E518F528C538D548A558B5612160E5002C322D20485512985522A85532C85542D90E08BE555F0E556A3F085502BA3E4F0A3F0121684D3223B
:4016840090E08CE090E08EFAE0A32AF090E08BE0FAA3E0FBA3E0FCA3E0FD2BFBEA3CFA24FF50197557167558D774FC552B4402FB7D017C007F8F7EE01217FE2275571675D4
:1316C40058D774FC552BFB7D017C007F8F7EE01217FE224A
:4016D7001200FD405D90E08BE0FAA3E0FBA3E0FCA3E0FD2BFBEA3CFA24FF502475611775623D74FC552B4402FB7D017C0090E08DE0FEA3E0FF252AFFE5293EFE1218662225
:2617170075611775623D74FC552BFB7D017C0090E08DE0FEA3E0FF252AFFE5293EFE121866221216842251
:1A173D001200FD401190E08D121D39EFB52D07EEB52C03C20422121684226D
:4017570090E08CE090E08EFAE090E0902AF090E08DE0FEA3E0FF852A82852983121D2EE090E091F090E08BE0FAA3E0FB2FFBEA3EFA24FF50197557177558BC74FC552B44CC
:2517970002FB7D027C007F907EE01217FE227557177558BC74FC552BFB7D027C007F907EE01217FE2277
:1A17BC001200FD401190E08D121D39EFB52D07EEB52C03C20422121757221A
:2317D600C2AFC206C205C208E4F530F531C207F532F53390E67AF090E678F05391DFD2E9D2AF2200
:03004000A20522F4
:0300FD00A2062236
:0517F90090E093E022E6
:4017FE008E598F5A8C5B8D5CE4F55DF55EF55FF560300502C322D2058005785D121EF990E678E054406012E5602480E55F3469E55E3467E55D34FF50E1855732855833C261
:28183E000685592E855A2F855B30855C3190E092E4F0A3F0D208C20790E678E04480F0EB25E054FEA3F0D322E8
:401866008E638F648C658D66E4F567F568F569F56A300502C322D20580057867121EF990E678E054406012E56A2480E5693469E5683467E56734FF50E1856132856233C262
:2818A6000685632E85642F85653085663190E092E4F0A3F0C208D20790E678E04480F0EB25E04401A3F0D32265
:4018CE00C0E0C0F0C082C083C000C001C002C003C004C005C006C007C0D075D00090E678E054046004D2068002C20630081490E678E054026004C2098002D209A206720949
:40190E00920620062D30083490E092E0FAA3E0FBC3EB9531EA9530501990E092121D71852F82852E83121D2EE0F56B90E679F00219CD90E678E04440F00219BCAF31AE3013
:40194E007D017C00121D4DAA06AB0790E092E0FCA3E0FDB5070BECB5060790E678E04420F030070890E679E0C207805390E092E0FCA3E0FDC3ED9BEC9A501890E679E0FA82
:40198E0090E092121D71852F82852E83121D2EEAF0802C90E678E04440F0A3E0FA90E092121D71852F82852E83121D2EEAF0C205E53345326009853382853283121D23534C
:1D19CE0091DFD0D0D007D006D005D004D003D002D001D000D083D082D0F0D0E03209
:4019EB008E6C8F6D8C6E8D6F8B70856D82856C83E56EF0E56FA3F0E56D2409F582E4356CF583E570F0856D82856C83E0FAA3E0FBAD707C00EB2DFBEA3CFAE56D2406F5828C
:121A2B00E4356CF583EAF0EBA3F0AF6DAE6C121A46228A
:091A3D008F828E83E4F0A3F022F5
:311A46008F828E83E0F8A3E0F9EF2404F582E43EF583E8F0E9A3F0EF2402F582E43EF583E8F0E9A3F0EF2408F582E43EF583E4F022E1
:311A77008F828E83E0F8A3E0F9EF2404F582E43EF583E8F0E9A3F0EF2402F582E43EF583E8F0E9A3F0EF2408F582E43EF583E4F022B0
:401AA8008DF0A806A907E92404F582E438F583AA83AB82E0FCA3E0FD8D828C83E5F0F0E92406F582E438F583E0FCA3E0FD8B828A83121D39D3ED9FEC9E501289828883E031
:1A1AE800FCA3E0FD8B828A83ECF0EDA3F0E92408F582E438F583E004F022DC
:401B02008DF0A81EA91FE92404F582E438F583AA83AB82E0FCA3E0FD8D828C83E5F0F0E92406F582E438F583E0FCA3E0FD8B828A83121D39D3ED9FEC9E501289828883E0A6
:1A1B4200FCA3E0FD8B828A83ECF0EDA3F0E92408F582E438F583E004F02281
:401B5C00A806A907E92402F582E438F583AA83AB82E0FCA3E0FD8D828C83E0F5F0E92406F582E438F583E0FCA3E0FD8B828A83121D39D3ED9FEC9E501289828883E0FCA35C
:1A1B9C00E0FD8B828A83ECF0EDA3F0E92408F582E438F583E014F0E5F022E1
:401BB600A81EA91FE92402F582E438F583AA83AB82E0FCA3E0FD8D828C83E0F5F0E92406F582E438F583E0FCA3E0FD8B828A83121D39D3ED9FEC9E501289828883E0FCA3D2
:1A1BF600E0FD8B828A83ECF0EDA3F0E92408F582E438F583E014F0E5F02287
:401C1000A806A907E92408F582E438F583E0FA600274017004E4FFFE22AD027C00E92409F582E438F583E0FF7E00AA04AB057D027C00121D4DD3EF9BEE9A30D202B2E730BE
:0C1C5000E7057F027E00227F017E00225B
:401C5C00A81EA91FE92408F582E438F583E0FA600274017004E4FFFE22AD1A7C00E92409F582E438F583E0FF7E00AA1CAB1D7D027C00121D4DD3EF9BEE9A30D202B2E730FA
:0C1C9C00E7057F027E00227F017E00220F
:0B1CA800EF2408F582E43EF583E02203
:0B1CB300EF2409F582E43EF583E022F7
:0E1CBE00E6FC08E6FD121D55EFF618EEF622C4
:121CCC00A3E02FFFF0E582700215831582E03EFEF0222F
:101CDE00E6CEFC08E6CFFD121D95EFF618EEF622C5
:251CEE00CAC0E0E4936AA36009A3A3D5F0F5D0E0FA22E493FAA3E493F5828A83D0E0FAD0E0D0E0E4733E
:101D1300E6CEFC08E6CFFD121DEEEFF618EEF62236
:021D2300E47367
:091D25002582F58250020583229B
:0B1D2E00EF2582F582EE3583F583225D
:141D3900AE83AF82A3E02401F0CFF5828E83E03400F0FE2221
:081D4D00C3EF9DFFEE9CFE2296
:151D5500C0F0ED8FF0A4CFC5F0CCA42CCE8DF0A42EFED0F0229C
:071D6A00ED4FFFEC4EFE22DD
:141D7100A3E0FF2401F0E582700215831582E0FE3400F0229B
:101D8500ED540F600AFDEF25E0CE33CEDDF9FF22DD
:401D9500BC0005BD0002D322C0F075F000EE30E70C05F0EFF42401FFEEF43400FEEC30E710E5F02402F5F0EDF42401FDECF43400FC121DEEE5F0601E30E00AEDF42401FDD0
:191DD500ECF43400FCE5F0B40302800AEFF42401FFEEF43400FED0F022D0
:401DEE00BC0014BD0002D322BE004FC5F08DF0CF84CFADF0C5F022BE0008EFFDEEFCE4FFFE22C3EF9DEE9C40F1C0F0E8C0E0E9C0E0E4F97801C3EF33FFEE33FEE933F9EE96
:401E2E009DF5F0E99CB35003F9AEF0E833F850E5E9FCEEFDE8FF7E008033C0F0E8C0E0E9C0E07809EFF97F008DF0ACF0EE84FEE5F0C35006CF33CF9C80089C50012CCFB3F0
:171E6E0033CFC925E0C9FD35E0D8E77C00D0E0F9D0E0F8D0F0C32281
:1E1E8500E493A3CCC583CCCDC582CDF0A3CCC583CCCDC582CDEFB582E7EEB583E322D8
:401EA300EEB58305EFB5820122E9C0E0ECC0E0C0F0E875F008842420F9E7FCE5F06005CC03DCFDCCEEB5831AEFB58216E854076006EC03FC0880F5ECF7D0F0D0E0FCD0E093
:161EE300F922E493C36001D3EC13FC08A3E8540770D2ECF780BB17
:1B1EF900080808E62401FFF618E63400FEF618E63400FDF618E63400FCF62225
:0E1F1400901F2F7CE07D947E1F7FCD121E9AC1
:0C1F2200901FCD78007E1F7FCF121EA301
:011F2E002290
:0400000300000000F9
:00000001FF
