:03000000120003E8
:400100000211D1000213500002135000021350000211F00002123E0002135000021350000213500002135000021350000212A3000212C200021350000213500002135000A2
:40014000021350000213500002135000021350000213500002135000021350000213500002135000021350000213500002135000021350000213500002135000021350002F
:380180000213500002135000021350000213500002135000021350000213500002135000021350000213500002135000021350000212FF000213500013
:03004300020100B7
:03005300020100A7
:03004B000218EBAD
:11000300E4F5D0758170121F4575D000120E5580FE2F
:171F6000081E01010001000000000000000000000000000010001021
:401F77000F100101AC0101070101000007060600C4C4C5C5C5C4C4C03F30F12D2DF1123F0F1001A3010101070101020704000000C0C0C2C2C0C0C0C03F312D2D002D363FD8
:401FB70001010101010101070200020000000000C1C4C4C0C0C0C0C0CE095212002D123F01010101010101070202000000000000C2C2C0C0C0C0C0C009521212002D363FDF
:071FF700400001C006E431C7
:0700140075B2F9538086224A
:40033A0075220075230075280090E65EE054EFF090E660E054FEF07402558060034323041213E11213E11213E190E61274A0F01213E11213E11213E190E6137422F01213DC
:40037A00E11213E11213E190E61474E0F01213E11213E11213E190E6157422F01213E11213E11213E190E6047480F01213E11213E11213E190E6047402F01213E11213E1F7
:4003BA001213E190E6047406F01213E11213E11213E190E604E4F01213E11213E11213E190E6187401F01213E11213E11213E190E6187411F01213E11213E11213E190E617
:4003FA001A7409F01213E11213E11213E190E6917480F01213E11213E11213E190E6917480F01213E11213E11213E190E6917480F01213E11213E11213E190E6917480F048
:23043A00120DEB1213E11213E11213E190E6D3E4F01213E11213E11213E190E6E3E4F05380FE2234
:4000560090E68BE4F090E6A0E0540270F890E133E4F0A3F0800D7F017E001213A590E133121D6A12141B500F90E133E0FAA3E0FB2418EA34FC50DF754950E4FBFA90E6BF07
:40009600E0FF7E007D08121DB690E6BEE0FD7C00121D9BAD07AC067F407EE712163190E133E4F0A3F0800D7F017E001213A590E133121D6A12162B500F90E133E0FAA3E0D9
:0900D600FB2418EA34FC50DF227F
:0E001B004380807F017E001213A553807F2258
:0D00290090E740E4F090E68AF0A304F02296
:40045D0090E6BBE0FF7E007D08121DB690E6BAE0FD7C00121D9BEF4E700790E0A2E4F0A3F090E135E4F0A3F0803B90E0A2E0FEA3E0FF90E095121D5FE090E135FAE0FEA319
:40049D00E0FF90E740121D5FEAF090E0A2E0F8A3E0F924F4E834FF400690E0A2121D6A90E135121D6A90E6BFE0FF7E007D08121DB690E6BEE0FD7C00121D9B90E135E0F887
:2804DD00A3E0F9C39FE89E40A190E68AE4F090E6BFE0FF7E007D08121DB690E6BEE0FD121D9B90E68BEFF02205
:0F00DF0090E740E523F090E68AE4F0A304F022D6
:0F00EE0090E740E522F090E68AE4F0A304F022C8
:2D01B8005322F190E7407401F090E6BBE0FF7E007D08121DB690E6BAE0FD7C00121D9B90E000EFF090E68AE4F0A304F02271
:4005050090E68BE4F090E137F0A3F0800D7F017E001213A590E137121D6A90E6A0E05402600F90E137E0FAA3E0FB2418EA34FC50DC90E137E0FAA3E0FB2418EA34FC50033A
:4005450002061590E6BBE0FF7E007D08121DB690E6BAE0FD7C00121D9BEF4E701090E000E090E0A5F0E490E0A4F05322F790E137E4F0A3F0800D7F017E001213A590E1379C
:40058500121D6A12141B400512162B500F90E137E0FAA3E0FB2418EA34FC50DA90E137E0FAA3E0FB2418EA34FC406575497090E0A4E0FAA3E0FB90E6BFE0FF7E007D081227
:4005C5001DB690E6BEE0FD7C00121D9BAD07AC067F407EE712163190E137E4F0A3F0800D7F017E001213A590E137121D6A12162B500F90E137E0FAA3E0FB2418EA34FC50EC
:40060500DF90E137E0FAA3E0FB2418EA34FC50044322082290E6BFE0FF7E007D08121DB690E6BEE0FD7C00121D9B90E0A4121CE9E0FAA3E0FBEA24FF500C43220290E0A4E3
:07064500E4F074FFA3F022B2
:40064C0090E6BBE0FF7E007D08121DB690E6BAE0FD7C00121D9BEF4E701090E000E090E0A7F0E490E0A6F05322FB90E139E4F0A3F0800D7F017E001213A590E139121D6A0C
:40068C0012141B400512162B500F90E139E0FAA3E0FB2418EA34FC50DA90E139E0FAA3E0FB2418EA34FC406575507090E0A6E0FAA3E0FB90E6BFE0FF7E007D08121DB69048
:4006CC00E6BEE0FD7C00121D9BAD07AC067F407EE712166990E139E4F0A3F0800D7F017E001213A590E139121D6A12162B500F90E139E0FAA3E0FB2418EA34FC50DF90E1B9
:40070C0039E0FAA3E0FB2418EA34FC500B90E68AE4F0A3F04322042290E6BFE0FF7E007D08121DB690E6BEE0FD7C00121D9B90E0A6121CE9E0FAA3E0FBEA24FF500C4322D3
:2B074C000290E0A6E4F074FFA3F090E68AE4F090E6BFE0FF7E007D08121DB690E6BEE0FD7C00121D9B90E68BEFF02267
:4007770090E68BE4F090E13BF0A3F0800D7F017E001213A590E13B121D6A90E6A0E05402600F90E13BE0FAA3E0FB2418EA34FC50DC90E13BE0FAA3E0FB2418EA34FC5003B6
:4007B70002089F90E6BBE0FF7E007D08121DB690E6BAE0FD7C00121D9BEF4E700990E0A8E4F07410A3F090E13BE4F0A3F0800D7F017E001213A590E13B121D6A12141B4027
:4007F7000512162B500F90E13BE0FAA3E0FB2418EA34FC50DA90E13BE0FAA3E0FB2418EA34FC500302089F75495090E0A8E0FAA3E0FB90E6BFE0FF7E007D08121DB690E641
:40083700BEE0FD7C00121D9BAD07AC067F407EE712163190E13BE4F0A3F0800D7F017E001213A590E13B121D6A12162B500F90E13BE0FAA3E0FB2418EA34FC50DF90E13B29
:29087700E0FAA3E0FB2418EA34FC401C90E6BFE0FF7E007D08121DB690E6BEE0FD7C00121D9B90E0A8121CE922AA
:4008A00090E6BBE0FF7E007D08121DB690E6BAE0FD7C00121D9BEF4E700990E0AAE4F07410A3F090E13DE4F0A3F0800D7F017E001213A590E13D121D6A12141B40051216B3
:4008E0002B500F90E13DE0FAA3E0FB2418EA34FC50DA90E13DE0FAA3E0FB2418EA34FC406575505090E0AAE0FAA3E0FB90E6BFE0FF7E007D08121DB690E6BEE0FD7C0012A5
:400920001D9BAD07AC067F407EE712166990E13DE4F0A3F0800D7F017E001213A590E13D121D6A12162B500F90E13DE0FAA3E0FB2418EA34FC50DF90E13DE0FAA3E0FB24AC
:4009600018EA34FC500890E68AE4F0A3F02290E6BFE0FF7E007D08121DB690E6BEE0FD7C00121D9B90E0AA121CE990E68AE4F090E6BFE0FF7E007D08121DB690E6BEE0FDDF
:0909A000121D9B90E68BEFF02282
:1E09A90090E680E05480600890E7407401F0800590E740E4F090E68AE4F0A304F02265
:3F09C7005323FB5322FE5380C77F017E001213A543800890E13FE4F0A3F0800D90E13F121D6A7F017E001213A574045580700F90E13FE0FAA3E0FB2418EA34FC50DE22B1
:400A060090E68DE0F80890E780803AE0A3C285139284D285C285139284D285C285139284D285C285139284D285C285139284D285C285139284D285C285139284D285C285E1
:0D0A4600139284D285D8C490E68DE4F0228E
:1701E5005380CF74025580600743230412001B224322015380F722A4
:400A53005322DF74035523700890E6C1E05480700B43222090E740E4F0020BB043804090E680E05480602E1213E11213E11213E17526007527FF1213E11213E11213E19050
:400A9300E6307482F01213E11213E11213E190E631E4F0802D1213E11213E11213E175260075271F1213E11213E11213E190E6307480F01213E11213E11213E190E63174BC
:400AD30040F01213E11213E11213E190E6D2E4F01213E11213E11213E190E6047480F01213E11213E11213E190E6047402F01213E11213E11213E190E604E4F090E6837456
:400B130002F07422F07402F01213E11213E11213E190E6187401F01213E11213E11213E190E6187411F01213E11213E11213E190E6917480F01213E11213E11213E190E625
:400B5300917480F01213E11213E11213E190E6917480F01213E11213E11213E190E6917480F075280043230290E6F3E04480F074FF552690E6D0F074FF5527A3F090E65F76
:290B93007410F090E6617401F090E65EE04410F090E660E04401F090E7407401F05380BF90E68AE4F0A304F0226B
:400BBC00740255237003020C5290E65EE054EFF090E660E054FEF090E6D0E4F0A3F090E6F3E0547FF05323FD90E6F574FFF01213E11213E11213E190E6047480F01213E1E9
:400BFC001213E11213E190E6047402F01213E11213E11213E190E604E4F01213E11213E11213E190E6917480F01213E11213E11213E190E6917480F01213E11213E1121342
:170C3C00E190E6917480F01213E11213E11213E190E6917480F022B6
:400C53005322EF74035523700890E6C1E05480700B43221090E740E4F0020D8290E680E0548060591213E11213E11213E17524007525FE1213E11213E11213E190E63474C9
:400C930018F01213E11213E11213E190E635E4F01213E11213E11213E190E6E2E4F01213E11213E11213E190E6247402F01213E11213E11213E190E625E4F0803B1213E1F6
:400CD3001213E11213E175240075251E1213E11213E11213E190E6E27401F01213E11213E11213E190E624E4F01213E11213E11213E190E6257440F04380011213E11213F5
:400D1300E11213E190E6047480F01213E11213E11213E190E6047406F01213E11213E11213E190E604E4F090E6837416F07436F07416F075280043230190E6F3E04480F07D
:380D530074FF552490E6E0F074FF5525A3F090E6617401F090E660E04401F090E6E4E090E7407401F090E0177409F074C4A3F090E68AE4F0A304F022ED
:400D8B0074015523605990E660E054FEF090E6E0E4F0A3F090E6F3E0547FF05323FE90E6F574FFF01213E11213E11213E190E6047480F01213E11213E11213E190E604740F
:200DCB0006F01213E11213E11213E190E604E4F090E6837416F07436F07416F0752800226C
:4002000012010002000000408D0808100200010200010A060002000000400100090227000101004000090400000300000000070501024000000705020200020007058602EA
:400240000002000009022700010100400009040000030000000007050102400000070502024000000705860240000000040309041C0341006C006900740072006F006E0079
:2402800069006B00610020004E004C000E034100540030003600300030000A03560033002E0030000B
:4002A40020101D21102622102C23103224103825103E26104427104A2810502910562A105C2B10622C10682D106E2E10742F107A30108031108606108C0A11370B113D09F8
:4002E400114208114700114C01117803118A4658322069732072756E6E696E670A0D002E00536F6674776172652076657273696F6E3A20560044617465206275696C64653C
:13032400643A20004A756E2020322032303035000A0D006B
:030337003078001B
:400DEB0090E60174E2F090E6F574FFF090E12CE090E6F3F04420F090E12DE090E6C3F090E12EE090E6C1F090E12FE090E6C2F090E131E090E6C0F090E132E090E6F4F07524
:2A0E2B00AF0790E14174E0F074ACA3F090E141E0F59AA3E0F59B759DE4759E007F0090E67BE0A3F00FEF30E7F522F2
:021FFE000000E1
:400E550090E600E04402F01213E11213E11213E190E600E04410F01213E11213E11213E1538EF81216257F021213F97FF27E0212142A7F057E0312142A7F037E0012148D05
:400E95007F037E0312142AE4FFFE12148D7F347E0312142A7F197E0312142A7F287E0312142A7F347E0312142AE4F510F511F512F513800C7F017E001213A57810121F2A18
:400ED50012141B5012E5132418E51234FCE51134FFE51034FF50DD121421C006C00712004ED003D002D3EF9BEE9A500990E680E04408F080FE120FC990E0037402F0740083
:400F1500A3F0A37402F07412A3F0A37402F0741CA3F0A37402F07444A3F090E00F7402F0746CA3F0A37402F07470A3F0A37402F0748CA3F0A37402F0749AA3F090E680E073
:400F55005480602290E007E0FAA3E0FB90E00BEAF0EBA3F090E009E0FCA3E0FD90E00DECF0EDA3F0801E90E009E0FAA3E0FBA3EAF0EBA3F090E007E0FCA3E0FD90E00DEC10
:340F9500F0EDA3F0D2027F0012135B30000512100DC200300105120A06C20190E017E0FAA3E0FB4A70055380FE80E090E017121D4080D82265
:400FC900C2AFC200C20190E61074A0F0A37420F090E68DE4F090E668E0440BF090E65CE04431F090E65EE04408F0D2E8D2EAD2AF5391EF90E65D74FFF090E65FF012033A52
:04100900120014229B
:40100D0090E6B9E09002A475F01A121D0B02119412001B12033A02119B12045D02119B1200DF02119B1200EE02119B12002902119B1201B802119B12050502119B12064CD6
:40104D0002119B1209C702119B1201E502119B120A5302119B120BBC02119B120C5302119B120D8B02119B12005602119B12077702119B1208A002119B1209A902119B90A6
:40108D00E6BBE014601014603314605624FD601914603C02119490E003E090E6B3F090E004E090E6B4F002119B90E005E090E6B3F090E006E090E6B4F002119B90E00BE04D
:4010CD0090E6B3F090E00CE090E6B4F002119B90E00DE090E6B3F090E00EE090E6B4F002119B90E6BAE0602F14600614601602119B90E011E090E6B3F090E012E090E6B4B3
:40110D00F002119B90E013E090E6B3F090E014E090E6B4F002119B90E00FE090E6B3F090E010E090E6B4F002119B1211BF02119B1211B5805912003680541211A3804F903A
:40114D00E6B8E02480600F14600514600F803890E740E4F0800690E7407401F090E741E4F090E68AF0A37402F0802390E6B8E0601624FE701990E6BAE06013800A90E6B85E
:16118D00E0600424FE700790E6A0E04401F090E6A0E04480F02278
:0A00360090E6BAE090E001F0D3225A
:1211A30090E001E090E740F090E68AE4F0A304F0D322E2
:0A11B50090E6BAE090E002F0D322C9
:1211BF0090E002E090E740F090E68AE4F0A304F0D322C5
:1F11D100C0E0C082C083C0D075D008D2005391EF90E65D7401F0D0D0D083D082D0E032F9
:4011F000C0E0C082C083C0D075D00890E009E0F8A3E0F9A3E8F0E9A3F090E007E0FAA3E0FB90E00DEAF0EBA3F05391EF90E65D7410F0C200C20190E61074A0F0A37420F005
:0E12300090E68DE4F0D0D0D083D082D0E032B2
:40123E00C0E0C082C083C0D075D00890E680E05480602290E007E0F8A3E0F990E00BE8F0E9A3F090E009E0FAA3E0FB90E00DEAF0EBA3F0801E90E009E0F8A3E0F9A3E8F01C
:25127E00E9A3F090E007E0FAA3E0FB90E00DEAF0EBA3F05391EF90E65D7420F0D0D0D083D082D0E032DA
:1F12A300C0E0C082C083C0D075D008D2015391EF90E65F7408F0D0D0D083D082D0E0321C
:3D12C200C0E0C082C083C0D075D00890E6C1E05480601674FF552690E6D0F074FF5527A3F090E6D474FFF0800205285391EF90E65F7410F0D0D0D083D082D0E03247
:4012FF00C0E0C082C083C0D075D00874015523601474FF552490E6E0F074FF5525A3F090E6E4E0801AE528601674FF552690E6D0F074FF5527A3F090E6D474FFF015285360
:11133F0091BF90E6617401F0D0D0D083D082D0E032EA
:0B135000C0D075D0085391EFD0D03210
:40135B008F1490E680E04408F01213E11213E11213E190E6FBE514F030020790E680E04402F07FD07E071213A590E65D74FFF090E65FF05391EF5391BF90E680E054F7F0CC
:0A139B001213E11213E11213E12214
:3C13A5008E158F1690E600E05418700978157F027E00121D3090E600E05418B4100978157F027E00121CDB80031213E8AB16AA151516BB00021515EB4A70EE22A3
:0713E10000000000000022E3
:040046000000002294
:1113E8007400F58690FDA57C05A3E582458370F922F5
:2213F9008F1790E019E517F0C20390E08AE4F0A3F01217F37B647D247CE07F1A7EE0121A08224C
:06141B00120040720322E2
:0914210090E08AE0FEA3E0FF2246
:05004E007FC87E0022C6
:40142A008E348F35D203C2AF7536008017E536853582853483121D56E493FD7F1A7EE0121AC50536E536853582853483121D56E49370DA120040402890E08AE4F0A3F07F52
:23146A001A7EE0121B7990E089F07557157558D890E019E0FB7D017C007F897EE012181BD2AF2226
:40148D008E378F38753900D203AF38AE377D0A7C00121DC674302DFAE5390539243AF9A70278377F0A7E00121CFBEF4E70DBC2AF8010E5392439F9E7FD7F1A7EE0121AC57D
:3614CD001539E53970EC120040402890E08AE4F0A3F07F1A7EE0121B7990E089F07557157558D890E019E0FB7D017C007F897EE012181BD2AF224E
:401503008E3F8F40754100D2037F377E0312142AAF40AE3F7D107C00121DC68D42E54224F6401074302542FAE54105412443F9A702800E74372542FAE54105412443F9A739
:4015430002783F7F107E00121CFBEF4E70C2C2AF8010E5412442F9E7FD7F1A7EE0121AC51541E54170EC120040402890E08AE4F0A3F07F1A7EE0121B7990E089F07557155E
:161583007558D890E019E0FB7D017C007F897EE012181BD2AF2201
:3F1599008F48D203C2AFAD487F1A7EE0121AC5D2AF120040402890E08AE4F0A3F07F1A7EE0121B7990E089F07557157558D890E019E0FB7D017C007F897EE012181B2246
:4015D8001200FD501090E08A121DA2EF2438EE34FF403080177F1A7EE0121C2DEF144E70227F1A7EE0121B7990E089F07557157558D890E019E0FB7D017C007F897EE0120F
:0D161800181B22C2037F1A7EE0121A632203
:061625001217F3C20422BB
:06162B00120040720422CF
:0401FC001200FD22CE
:381631008E4A8F4B8C4C8D4D8A4E8B4F12162B5002C322D204854A29854B2A854C2C854D2D90E08CE54EF0E54FA3F085492BA3E4F0A3F0121774D322A2
:381669008E518F528C538D548A558B5612162B5002C322D20485512985522A85532C85542D90E08CE555F0E556A3F085502BA3E4F0A3F01216A1D322E3
:4016A10090E08DE090E08FFAE0A32AF090E08CE0FAA3E0FBA3E0FCA3E0FD2BFBEA3CFA24FF50197557167558F474FC552B4402FB7D017C007F907EE012181B227557167578
:1316E10058F474FC552BFB7D017C007F907EE012181B22F1
:4016F4001200FD405D90E08CE0FAA3E0FBA3E0FCA3E0FD2BFBEA3CFA24FF502475611775625A74FC552B4402FB7D017C0090E08EE0FEA3E0FF252AFFE5293EFE12188322CC
:2617340075611775625A74FC552BFB7D017C0090E08EE0FEA3E0FF252AFFE5293EFE121883221216A122DC
:1A175A001200FD401190E08E121D6AEFB52D07EEB52C03C204221216A12201
:4017740090E08DE090E08FFAE090E0912AF090E08EE0FEA3E0FF852A82852983121D5FE090E092F090E08CE0FAA3E0FB2FFBEA3EFA24FF50197557177558D974FC552B445B
:2517B40002FB7D027C007F917EE012181B227557177558D974FC552BFB7D027C007F917EE012181B22FF
:1A17D9001200FD401190E08E121D6AEFB52D07EEB52C03C2042212177422AE
:2317F300C2AFC206C205C208E4F530F531C207F532F53390E67AF090E678F05391DFD2E9D2AF22E3
:03004000A20522F4
:0300FD00A2062236
:0518160090E094E022C7
:40181B008E598F5A8C5B8D5CE4F55DF55EF55FF560300502C322D2058005785D121F2A90E678E054406012E5602480E55F3469E55E3467E55D34FF50E1855732855833C211
:28185B000685592E855A2F855B30855C3190E093E4F0A3F0D208C20790E678E04480F0EB25E054FEA3F0D322CA
:401883008E638F648C658D66E4F567F568F569F56A300502C322D20580057867121F2A90E678E054406012E56A2480E5693469E5683467E56734FF50E1856132856233C213
:2818C3000685632E85642F85653085663190E093E4F0A3F0C208D20790E678E04480F0EB25E04401A3F0D32247
:4018EB00C0E0C0F0C082C083C000C001C002C003C004C005C006C007C0D075D00090E678E054046004D2068002C20630081490E678E054026004C2098002D209A20672092C
:40192B00920620062D30083490E093E0FAA3E0FBC3EB9531EA9530501990E093121DA2852F82852E83121D5FE0F56B90E679F00219EA90E678E04440F00219D9AF31AE3058
:40196B007D017C00121D7EAA06AB0790E093E0FCA3E0FDB5070BECB5060790E678E04420F030070890E679E0C207805390E093E0FCA3E0FDC3ED9BEC9A501890E679E0FA32
:4019AB0090E093121DA2852F82852E83121D5FEAF0802C90E678E04440F0A3E0FA90E093121DA2852F82852E83121D5FEAF0C205E53345326009853382853283121D545338
:1D19EB0091DFD0D0D007D006D005D004D003D002D001D000D083D082D0F0D0E032EC
:401A08008E6C8F6D8C6E8D6F8B70856D82856C83E56EF0E56FA3F0E56D2409F582E4356CF583E570F0856D82856C83E0FAA3E0FBAD707C00EB2DFBEA3CFAE56D2406F5826E
:121A4800E4356CF583EAF0EBA3F0AF6DAE6C121A632250
:091A5A008F828E83E4F0A3F022D8
:311A63008F828E83E0F8A3E0F9EF2404F582E43EF583E8F0E9A3F0EF2402F582E43EF583E8F0E9A3F0EF2408F582E43EF583E4F022C4
:311A94008F828E83E0F8A3E0F9EF2404F582E43EF583E8F0E9A3F0EF2402F582E43EF583E8F0E9A3F0EF2408F582E43EF583E4F02293
:401AC5008DF0A806A907E92404F582E438F583AA83AB82E0FCA3E0FD8D828C83E5F0F0E92406F582E438F583E0FCA3E0FD8B828A83121D6AD3ED9FEC9E501289828883E0E3
:1A1B0500FCA3E0FD8B828A83ECF0EDA3F0E92408F582E438F583E004F022BE
:401B1F008DF0A81EA91FE92404F582E438F583AA83AB82E0FCA3E0FD8D828C83E5F0F0E92406F582E438F583E0FCA3E0FD8B828A83121D6AD3ED9FEC9E501289828883E058
:1A1B5F00FCA3E0FD8B828A83ECF0EDA3F0E92408F582E438F583E004F02264
:401B7900A806A907E92402F582E438F583AA83AB82E0FCA3E0FD8D828C83E0F5F0E92406F582E438F583E0FCA3E0FD8B828A83121D6AD3ED9FEC9E501289828883E0FCA30E
:1A1BB900E0FD8B828A83ECF0EDA3F0E92408F582E438F583E014F0E5F022C4
:401BD300A81EA91FE92402F582E438F583AA83AB82E0FCA3E0FD8D828C83E0F5F0E92406F582E438F583E0FCA3E0FD8B828A83121D6AD3ED9FEC9E501289828883E0FCA384
:1A1C1300E0FD8B828A83ECF0EDA3F0E92408F582E438F583E014F0E5F02269
:401C2D00A806A907E92408F582E438F583E0FA600274017004E4FFFE22AD027C00E92409F582E438F583E0FF7E00AA04AB057D027C00121D7ED3EF9BEE9A30D202B2E73070
:0C1C6D00E7057F027E00227F017E00223E
:401C7900A81EA91FE92408F582E438F583E0FA600274017004E4FFFE22AD1A7C00E92409F582E438F583E0FF7E00AA1CAB1D7D027C00121D7ED3EF9BEE9A30D202B2E730AC
:0C1CB900E7057F027E00227F017E0022F2
:0B1CC500EF2408F582E43EF583E022E6
:0B1CD000EF2409F582E43EF583E022DA
:0E1CDB00E6FC08E6FD121D86EFF618EEF62276
:121CE900A3E02FFFF0E582700215831582E03EFEF02212
:101CFB00E6CEFC08E6CFFD121DC6EFF618EEF62277
:251D0B00CAC0E0E4936AA36009A3A3D5F0F5D0E0FA22E493FAA3E493F5828A83D0E0FAD0E0D0E0E47320
:101D3000E6CEFC08E6CFFD121E1FEFF618EEF622E7
:141D4000AE83AF82A3E024FFF0CFF5828E83E034FFF0FE221D
:021D5400E47336
:091D56002582F58250020583226A
:0B1D5F00EF2582F582EE3583F583222C
:141D6A00AE83AF82A3E02401F0CFF5828E83E03400F0FE22F0
:081D7E00C3EF9DFFEE9CFE2265
:151D8600C0F0ED8FF0A4CFC5F0CCA42CCE8DF0A42EFED0F0226B
:071D9B00ED4FFFEC4EFE22AC
:141DA200A3E0FF2401F0E582700215831582E0FE3400F0226A
:101DB600ED540F600AFDEF25E0CE33CEDDF9FF22AC
:401DC600BC0005BD0002D322C0F075F000EE30E70C05F0EFF42401FFEEF43400FEEC30E710E5F02402F5F0EDF42401FDECF43400FC121E1FE5F0601E30E00AEDF42401FD6D
:191E0600ECF43400FCE5F0B40302800AEFF42401FFEEF43400FED0F0229E
:401E1F00BC0014BD0002D322BE004FC5F08DF0CF84CFADF0C5F022BE0008EFFDEEFCE4FFFE22C3EF9DEE9C40F1C0F0E8C0E0E9C0E0E4F97801C3EF33FFEE33FEE933F9EE64
:401E5F009DF5F0E99CB35003F9AEF0E833F850E5E9FCEEFDE8FF7E008033C0F0E8C0E0E9C0E07809EFF97F008DF0ACF0EE84FEE5F0C35006CF33CF9C80089C50012CCFB3BF
:171E9F0033CFC925E0C9FD35E0D8E77C00D0E0F9D0E0F8D0F0C32250
:1E1EB600E493A3CCC583CCCDC582CDF0A3CCC583CCCDC582CDEFB582E7EEB583E322A7
:401ED400EEB58305EFB5820122E9C0E0ECC0E0C0F0E875F008842420F9E7FCE5F06005CC03DCFDCCEEB5831AEFB58216E854076006EC03FC0880F5ECF7D0F0D0E0FCD0E062
:161F1400F922E493C36001D3EC13FC08A3E8540770D2ECF780BBE5
:1B1F2A00080808E62401FFF618E63400FEF618E63400FDF618E63400FCF622F3
:0E1F4500901F607CE07D957E1F7FFE121ECBFC
:0C1F5300901FFE78007E207F00121ED43C
:011F5F00225F
:0400000300000000F9
:00000001FF
